:020000040800F2
:10000000B86B0020E9020008F1310008E92B000874
:100010001D3100081F060008D93900080000000043
:10002000000000000000000000000000290200089D
:10003000090B000800000000850200087735000861
:100040000303000803030008030300080303000878
:100050000303000803030008030300080303000868
:100060000303000803030008030300080303000858
:100070000303000803030008030300080303000848
:10008000750A0008810A000803030008030300083A
:10009000210600082D0600080303000803030008DA
:1000A00003030008393600080303000803030008AF
:1000B0004536000851360008030300080303000812
:1000C00003030008030300080303000803030008F8
:1000D0000303000803030008CD39000803030008E8
:1000E00003030008030300080303000803030008D8
:1000F00003030008030300080303000803030008C8
:1001000003030008030300080303000803030008B7
:1001100003030008030300080303000803030008A7
:100120000303000803030008030300080303000897
:1001300003030008000000000000000003030008A3
:1001400039060008450600080303000803030008F9
:100150000303000803030008030300080303000867
:100160000303000803030008030300080303000857
:100170000303000803030008000000000000000063
:10018000030300080303000800F002F800F03CF845
:100190000AA090E8000C82448344AAF10107DA45E2
:1001A00001D100F031F8AFF2090EBAE80F0013F0F8
:1001B000010F18BFFB1A43F001031847B06200009B
:1001C000D0620000103A24BF78C878C1FAD852072C
:1001D00024BF30C830C144BF04680C6070470000C1
:1001E0000023002400250026103A28BF78C1FBD840
:1001F000520728BF30C148BF0B6070471FB506F0DB
:10020000ECF81FBD10B510BD00F0D0F91146FFF796
:10021000F5FF04F0C3FA00F0EEF903B4FFF7F2FFC4
:1002200003BC00F0F5F900002C4B19680868B0E831
:10023000F04F80F30988BFF36F8F4FF0000080F319
:10024000118870470000000008480068006880F3CB
:1002500008884FF0000080F3148862B661B6BFF3DF
:100260004F8FBFF36F8F00DF00BF00BF08ED00E0CE
:10027000DFF80C00016841F470010160704700BFB5
:1002800088ED00E0EFF30980BFF36F8F134B1A681E
:100290001EF0100F08BF20ED108A20E9F04F10600B
:1002A00009B44FF0500080F31188BFF34F8FBFF3B4
:1002B0006F8F05F065F94FF0000080F3118809BCDD
:1002C00019680868B0E8F04F1EF0100F08BFB0ECD6
:1002D000108A80F30988BFF36F8F704728000020D1
:1002E000EFF3058070470000094880470948004740
:1002F000FEE7FEE7FEE7FEE7FEE7FEE7FEE7FEE7D6
:10030000FEE7FEE704480549054A064B7047000032
:100310002936000889010008B85F0020B86B00206A
:10032000B8670020B867002053EA020C00F069802B
:100330002DE9F04B4FF00006002B1FBFB3FA83F5F9
:1003400003FA05F424FA05F65E4012BF1643B2FA2A
:1003500082F502FA05F4C5F120051EBF22FA05FC5C
:1003600044EA0C04203556EA044C4FEA144418BF02
:10037000641C4FF000084FF00009904271EB030C31
:1003800039D3002919BFB1FA81F701FA07F6B0FA9B
:1003900080F700FA07F6C7F120071EBF20FA07FC16
:1003A00046EA0C062037B6FBF4FCA7EB0507103F26
:1003B00007F01F0BCBF120060CFA0BFB2CFA06F60C
:1003C00044BFB3460026202FA4BF5E464FF0000B6B
:1003D0005BEA060C08BF4FF0010B19EB0B09ABFBF6
:1003E000027C48EB0608C01B06FB02CC0BFB03CCCF
:1003F00071EB0C01C1E70B46024641464846BDE899
:10040000F08B13B54FF000004FF00001AFF3008008
:10041000BDE81C407047032A40F2308010F0030C06
:1004200000F0158011F8013BBCF1020F624498BF47
:1004300011F801CB00F8013B38BF11F8013BA2F1E4
:10044000040298BF00F801CB38BF00F8013B11F05F
:10045000030300F02580083AC0F0088051F8043BFF
:10046000083A51F804CBA0E80810F5E7121D5CBF6C
:1004700051F8043B40F8043BAFF30080D20724BF9F
:1004800011F8013B11F801CB48BF11F8012B24BF33
:1004900000F8013B00F801CB48BF00F8012B704782
:1004A00010B5203AC0F00B80B1E81850203AA0E80F
:1004B0001850B1E81850A0E81850BFF4F5AF5FEA43
:1004C000027C24BFB1E81850A0E8185044BF18C9F6
:1004D00018C0BDE810405FEA827C24BF51F8043B9D
:1004E00040F8043B08BF7047D20728BF31F8023BF1
:1004F00048BF11F8012B28BF20F8023B48BF00F885
:10050000012B704702F0FF0343EA032242EA024252
:1005100000F02CB84FF0000200B513469446964602
:10052000203922BFA0E80C50A0E80C50B1F1200106
:10053000BFF4F7AF090728BFA0E80C5048BF0CC0B4
:100540005DF804EB890028BF40F8042B08BF704712
:1005500048BF20F8022B11F0804F18BF00F8012B84
:1005600070477047704770474FF000020429C0F091
:10057000128010F0030C3FF4CFAFCCF1040CBCF1AF
:10058000020F18BF00F8012BA8BF20F8022BA1EB27
:100590000C01FFF7C1BF5FEAC17C24BF00F8012B4B
:1005A00000F8012B48BF00F8012B7047754600F09A
:1005B0002BF8AE4605006946534620F007008546F5
:1005C00018B020B5FFF79EFEBDE820404FF00006B2
:1005D0004FF000074FF000084FF0000B21F007012B
:1005E000AC46ACE8C009ACE8C009ACE8C009ACE86E
:1005F000C0098D46704710B50446AFF30080204611
:10060000BDE81040FFF709BE00487047585F002062
:1006100001491820ABBEFEE7260002007047FEE746
:10062000014800F0AEBD0000A8000020014800F025
:10063000A8BD0000A8000020014800F0A2BD0000F5
:10064000D0000020014800F09CBD0000D000002038
:1006500030B589B00A46044600F09DF8002873D1F1
:100660003A4932250690079008908A423ED194F884
:100670002813029194F82813042901D099B118E0A5
:10068000D4F820130F2304EB01129168B3EB117F10
:1006900002D121F070419160D4F8201304EB0111D4
:1006A0008968019105E0D4F8201304EB01118968F1
:1006B0000091D4F8201304EB0111097BCDE903016B
:1006C000D4F820030A4604EB001106A8FFF7E8FE61
:1006D000D4F8200308AB401C90FBF5F105FB11009A
:1006E000C4F8200306AA694619482BE019498A4232
:1006F0002AD194F82813029194F82813042905D1DB
:10070000D4F8201304EB011189680191D4F8201367
:1007100004EB0111097BCDE90301D4F820030A465B
:1007200004EB001106A8FFF7BBFED4F8200308ABCA
:10073000401C90FBF5F105FB1100C4F8200306AA4C
:100740006946054800F0BEFB09B030BD00680040B6
:10075000D000002000640040A80000200022C0F863
:100760002023C0F8242319B1042180F828137047EE
:1007700080F828237047D0F824133222491C91FBBB
:10078000F2F302FB1311D0F82003814201D10120C2
:10079000704700207047D0E9C810814201D1012084
:1007A00070470020704702780B7803700A7070471A
:1007B00038B5424B0798CA1A994240D009DC404AE2
:1007C0001144072979D2DFE801F04E232A2E78322E
:1007D0003600042A3FD009DC012A34D0022A36D060
:1007E000032A6AD1BDE8384002F070BD052A36D030
:1007F000ED2A62D172B6BFF34F8F32480168324A98
:1008000001F4E06111430160BFF34F8F00BFFDE7CA
:10081000407800B10120BDE8384002F081BCBDE85D
:10082000384000F0B9BABDE8384000F0F1BABDE890
:10083000384002F01FBEBDE8384002F055BEBDE8AA
:10084000384000F0D5B9BDE8384000F033BABDE813
:10085000384000F05BB9BDE8384002F099BDBDE812
:10086000384002F0D1BC0022184C1949104600BF94
:1008700000EB400303EBC00304EBC30393F85330D6
:100880005BB9C0EBC00303EB430301EB830393F8B5
:10089000395015B993F8383003B10122401C0428AF
:1008A000E6DB00200B49009012B1452301E004E093
:1008B00052234322022002F0F5FB38BD120202014E
:1008C00000FEFDFE0CED00E00400FA0528500020BB
:1008D000AC4B0020000102022DE9F04100272DED74
:1008E000048B96B008218A01CDE91227B7EE000AE1
:1008F0008DF85410149741F6FF708DED100A9FED9E
:10090000560A4FF001088DED110AADF83C0042F295
:100910001070ADF856008DF81B808DF830709FED8B
:100920004F0A8DED070A9FED4E0A4FF4FA628DEDE6
:10093000080A8DF81970ADF824008DF8187040F68B
:10094000B830ADF82E009010ADF82C000A928DF85A
:1009500007808DF805708DF806708DF80470029789
:10096000ADF80C70ADF80E700497ADF814703D4DF5
:10097000ADF81670002600BF06EB8600C0EB8610AF
:1009800005EB8004A77067709DF8040084F874007C
:100990009DF8050084F875009DF8060084F876003F
:1009A0009DF8070084F8770004F178001C2206A95E
:1009B000FFF776FD0298C4F894000399A020C4F8CC
:1009C00098100499C4F89C100599015144F8507F7F
:1009D0002783761C082ECFDB0024464604EB8400D8
:1009E000C0EB8410611C05F8201005EB80001C2270
:1009F000C6700FA9001DFFF753FD641C082CEDDB2A
:100A000000269FED198ADFED198A9FED199A00BF24
:100A100006EB8600C0EB861005EB800404F1A40011
:100A20000021B0EE481AF0EE680AB0EE000A02F0BB
:100A3000E0FB04F1C8000021B0EE481AF0EE490ACC
:100A4000B2EE000A02F0D5FB761C082EE0DB16B0F1
:100A5000BDEC048BBDE8F0812CA0994100008743D8
:100A6000000087C3CC540020000000000AD7A33D3B
:100A70009A99993E014800F07DBE0000D001002007
:100A8000014800F077BE0000300200200168182302
:100A9000CAB2103AB2FBF3F2054B6FF30901032A15
:100AA0009B5CC36500D9091D81650846704700003D
:100AB0003864000810B5014600208B698A6A4FF03F
:100AC000C07453B1B3F5005F15D072B1012A0CD0D8
:100AD000022A0AD0032A09D104E01AB1012A06D059
:100AE000022A03D1C96AC90100D5012010BDC96A13
:100AF000A142FAD010BD002AF7D0012AF2D0022A72
:100B0000F3D0032AF3D010BD7047000010B50020C9
:100B10002DED028B84B0324C01900290009094ED48
:100B2000070AB1EE048A6A4620EE080ABDEEC00A42
:100B300010EE100A01B201A803F0FCFD94ED1C0AAE
:100B40006A4620EE080ABDEEC00A10EE100A01B295
:100B500001A803F0EFFD94ED310A6A4620EE080A81
:100B6000BDEEC00A10EE100A01B201A803F0E2FDCA
:100B700094ED460A6A4620EE080ABDEEC00A10EE61
:100B8000100A01B201A803F0D5FD1648FFF7F3FDE6
:100B900030B115490120087004B0BDEC028B10BDC6
:100BA00010480821D0F8242300EB02121173D0F86A
:100BB00024230E4900EB02129160D0F82413DDE9E2
:100BC000012300EB0111C1E90023D0F824133222E4
:100BD000491C91FBF2F302FB1311C0F82413DBE76D
:100BE000AC4B00202C5C002000000020140102020D
:100BF0003EB500202B4C01900290009094ED090A24
:100C00006A46BDEEC00A10EE100A01B201A803F058
:100C100091FD94ED1E0A6A46BDEEC00A10EE100A60
:100C200001B201A803F086FD94ED330A6A46BDEED9
:100C3000C00A10EE100A01B201A803F07BFD94ED8A
:100C4000480A6A46BDEEC00A10EE100A01B201A8B9
:100C500003F070FD1448FFF78EFD18B11349012011
:100C600008703EBD10480821D0F8242300EB021282
:100C70001173D0F824230E4900EB02129160D0F8D2
:100C80002413DDE9012300EB0111C1E90023D0F8B1
:100C900024133222491C91FBF2F302FB1311C0F81A
:100CA00024133EBDAC4B00202C5C00200000002033
:100CB0001201020210B500202DED028B84B0324CDF
:100CC00001900290009094ED080AB1EE048A6A4601
:100CD00020EE080ABDEEC00A10EE100A01B201A80B
:100CE00003F028FD94ED1D0A6A4620EE080ABDEEC9
:100CF000C00A10EE100A01B201A803F01BFD94ED2A
:100D0000320A6A4620EE080ABDEEC00A10EE100A4A
:100D100001B201A803F00EFD94ED470A6A4620EEE9
:100D2000080ABDEEC00A10EE100A01B201A803F0D5
:100D300001FD1648FFF71FFD30B11549012008706D
:100D400004B0BDEC028B10BD10480821D0F824235C
:100D500000EB02121173D0F824230E4900EB0212AB
:100D60009160D0F82413DDE9012300EB0111C1E902
:100D70000023D0F824133222491C91FBF2F302FB2A
:100D80001311C0F82413DBE7AC4B00202C5C0020CF
:100D9000000000201301020238B5B0F90040B0F99C
:100DA000021000EE104AB0F90420B0F90630B8EE97
:100DB000C00A154880ED030A00EE101A0021B8EEB3
:100DC000C00A80ED180A00EE102A0122B8EEC00A0F
:100DD00080ED2D0A00EE103AB8EEC00A80ED420A0E
:100DE000C1EBC10303EB430300EB83039A705A701A
:100DF000491C0429F4DB4120009044234722034985
:100E0000042002F04FF938BDAC4B00200201020271
:100E100038B5B0F904200521B0F90040B0F902500E
:100E2000B0F9063094FBF1F095FBF1F400EE100AF6
:100E300092FBF1F2B8EEC00A164893FBF1F180ED97
:100E4000020A00EE104AB8EEC00A80ED170A00EE62
:100E5000102AB8EEC00A80ED2C0A00EE101A00210C
:100E60000B46B8EEC00A012480ED410AC1EBC10275
:100E700002EB420200EB820293705470491C042979
:100E8000F4DB56200090442347220349042002F05B
:100E900009F938BDAC4B00200301020272B6FEE72F
:100EA00090F82020012A07D0022A05D0416A41F497
:100EB0008021416201207047006842690A43426113
:100EC00000207047F0B590F820500468A468012D08
:100ED00005D0022D03D0416A41F480214DE014F089
:100EE000406F01D1E50045D5C4F301640125A5405B
:100EF0001D608D684FF4C0739DB1CE6835434E6858
:100F000045EAC605066803EB0417F5514FF4C275B0
:100F1000076805EB04150E697E51097D012905D08E
:100F200009E00E88CD6845EA4655EBE701684E5961
:100F300046F480764E511179D2F805504FF4C676BA
:100F400041EA0521056806EB0416A9511178D2F88B
:100F500001204FF4C47541EA0221026805EB041533
:100F60005151006803EB0411425842F00102425013
:100F70000020F0BD416A41F4001141620120F0BD42
:100F800010B590F82020012A07D0022A05D0416A26
:100F900041F480214162012010BD3B48D0F800227D
:100FA00042F00102C0F80022D0F8002222F47C5264
:100FB000C0F80022D0F800224B6A42EA0322C0F8AF
:100FC00000220A7D02F01F0301229A40D0F81C3251
:100FD0009343C0F81C32CB69B3B9D0F80C329343B9
:100FE000C0F80C328C894B6864F31F434C6900EBEA
:100FF000C404C4F840320C890B6864F31F434C6985
:1010000000EBC404C4F84432CB69012B16D1D0F8EC
:101010000C321343C0F80C320C884B6864F31F4346
:101020004C6900EBC404C4F840320C89CB6864F30B
:101030001F434C6900EBC404C4F844328B69002B95
:10104000D0F804320ED01343C0F804320B69002BE1
:10105000D0F8143208D01343C0F81432096A0129B9
:1010600004D008E09343EFE79343F5E7D0F81C1270
:101070001143C0F81C12D0F8001221F00101C0F891
:101080000012002010BD000000640040704770B5E1
:1010900090F82040012C05D0022C03D0416A41F485
:1010A000802128E0046809B32469A40720D04FF404
:1010B000D874056804EB01142D5915F004059560EA
:1010C00005682D591AD0ED08556005682C5904F0B3
:1010D0000204D4604FF4DA74056804EB01142E594D
:1010E00006F00F06082E0CD308250DE0E468DCE7B7
:1010F000416A41F400114162012070BD6D0D15601F
:10110000E3E72D5905F00F05156105682D59C5F365
:101110000725956105682C59240C54614FF4DC7245
:10112000046802EB0112A4581C700468A458240A35
:101130005C700468A458240C9C700468A258120EB9
:10114000DA704FF4DE72046802EB0112A4581C71CD
:101150000468A458240A5C710468A458240C9C7187
:101160000468A258120EDA71006829B1016941F0D1
:1011700020010161002070BDC16841F02001C16003
:10118000F8E72DE9F05F0546006800244669D0F8CD
:1011900004908768D0F80CB0D0F810A0D0F8188070
:1011A000F10748D0F90714D001218160B80703D5B1
:1011B000284600F07EFA0CE0780702D54FF4006470
:1011C00007E0380702D54FF4805402E0284600F0CB
:1011D0006FFAF80516D529684FF480708860B80555
:1011E00003D5284600F067FA0CE0780502D544F4F0
:1011F000005407E0380502D544F4804402E0284654
:1012000000F058FAF80316D529684FF4803088604A
:10121000B80303D5284600F050FA0CE0780302D555
:1012200044F4004407E0380302D544F4803402E07B
:10123000284600F041FA300707D55FEACB6004D5B5
:101240002968102044F40074C86070074FF0080744
:1012500007D55FEA0B7004D52868C760284600F000
:10126000ABF9B00706D52868C068800702D02846C9
:1012700000F0A4F9700607D55FEACA6004D52968B2
:10128000102044F480640861B00607D55FEA0A7054
:1012900004D528680761284600F0ACF9F00606D5A9
:1012A00028680069800702D0284600F0A5F9B0033D
:1012B00008D55FEAC96005D529681020486028462E
:1012C00000F0C8F9F00307D55FEA097004D5286873
:1012D0004760284600F0F2F9300446D55FEA4970CD
:1012E00040D5F00504D55FEAC87001D044F0010490
:1012F000B00504D55FEA887001D544F0020470059A
:1013000004D55FEA487001D544F00404300529D5BE
:1013100018F0700F26D008F07000402815D006DCB9
:10132000102809D020280AD0302816D10AE05028E9
:101330000ED0602811D10EE044F008040DE044F016
:1013400010040AE044F0200407E044F0400404E004
:1013500044F0800401E044F480742868816921F03D
:1013600070018161296804204860002C05D0686AFA
:10137000204368622846FFF789FEBDE8F09F70B5FC
:10138000040003D094F8200010B104E0012070BDE7
:10139000204600F081F82068016841F001010160F9
:1013A00000F020FC0546052604E000F01BFC401B75
:1013B0000A2811D820684068C007F6D02068016864
:1013C00021F00201016000F00DFC05460BE000F089
:1013D00009FC401B0A2806D9606A40F400306062AC
:1013E00084F82060D2E7206840688007EFD4207E30
:1013F0000128206801683DD021F080010160607EF5
:1014000001282068016838D021F040010160A07EE9
:1014100001282068016833D021F020010160E07EBE
:101420000128206801682ED041F010010160207F62
:1014300001282068016829D021F008010160607F3F
:1014400001282068016824D021F004010160D4E95A
:1014500002010843D4E90412114308436168491E9C
:1014600008432168C86100206062012084F82000E0
:10147000002070BD41F08001C0E741F04001C5E7A8
:1014800041F02001CAE721F01001CFE741F0080147
:10149000D4E741F00401D9E7F0B587B00446142140
:1014A0006846FFF737F83F4B3F48DFF8F4E019682C
:1014B000D4F800C03C4A0225032609271030002436
:1014C000491CF4452CD11960012907D1016841F06C
:1014D00000710160006800F000700590106840F035
:1014E00001001060106802AB00F0010005904FF49D
:1014F000C050CDE9000583E8D00069462B4800F0D4
:1015000073FA00220521142000F004FC142000F0DE
:10151000F3FB00220521152000F0FCFB15203AE02A
:10152000DFF88CE0F44538D1D0F800C04CF0806C86
:10153000C0F800C0D0F800C001290CF0806CCDF8D4
:1015400014C0196007D1016841F0007101600068A2
:1015500000F000700590106840F002001060106804
:1015600002AB00F0020005906020CDE9000583E8A1
:10157000D00069460F4800F037FA002205214020CC
:1015800000F0C8FB402000F0B7FB002205214120FD
:1015900000F0C0FB412000F0AFFB07B0F0BD000041
:1015A0000064004014000020303802400000024077
:1015B00000680040000402407047000000B50C4A7B
:1015C00001688DB0914211D10BAB04AA0021FFF745
:1015D0005EFD0BA808AB039093E807008DE80700B9
:1015E0000DF1100C9CE80F00FFF7E2F80DB000BD04
:1015F000006400407047000000B5154A01688DB0D6
:10160000914216D10BAB04AA0121FFF740FD0699C8
:101610000BA804290FD000290BD108AB039093E845
:1016200007008DE807000DF1100C9CE80F0002F098
:10163000E1FE0DB000BD08AB039093E807008DE814
:1016400007000DF1100C9CE80F0002F0BFFBF0E763
:10165000006800407047000070B5044690F8200014
:10166000012804D0606A40F40020606218E0022083
:1016700084F820002068016821F00101016000F079
:10168000B1FA05460EE000BF00F0ACFA401B0A2894
:1016900008D9606A40F400306062052084F82000B8
:1016A000012070BD20684068C007EDD1606270BD48
:1016B00070477047704770477047704770472DE913
:1016C000F0410446876D00F08DFA064694F8350027
:1016D0000025022806D08020606584F8345001205F
:1016E000BDE8F0812068016821F0160101602068E2
:1016F000416921F080014161206C08B9A06C20B1E2
:101700002068016821F0080101602068016821F06B
:10171000010101600CE000F065FA801B052807D983
:1017200020206065032084F8350084F83450D7E722
:1017300020680068C007EED194F85C103F20884014
:10174000B860012084F8350084F834500020C7E7E1
:1017500090F83510022903D080214165012070479F
:10176000052180F835100068016821F00101016051
:10177000002070472DE9F84304464FF00009CDF8EA
:10178000009063484FF41651A56D0068B0FBF1F767
:101790002E6894F85C10082000FA01F131420FD055
:1017A00021680A6852070BD50A6822F004020A6011
:1017B00094F85C108840A860606D40F0010060659E
:1017C00094F85C104FF0010808FA01F0304208D09C
:1017D00021684969090604D5A860606D40F00200DF
:1017E000606594F85C1004208840304208D021687D
:1017F0000968890704D5A860606D40F00400606541
:1018000094F85C1010208840304218D02168096894
:10181000090714D5A86020680168490304D5006849
:10182000000308D5A16C07E00168C90503D401686D
:1018300021F008010160216C09B12046884794F825
:101840005C1020208840304231D021680968C906E8
:101850002DD5A86094F8350005282068016806D0C9
:10186000490347D5006800031DD4616C1CE021F0DA
:10187000160101602068416921F080014161206CFE
:1018800008B9A06C20B12068016821F0080101604E
:1018900094F85C103F208840A86084F8358084F874
:1018A0003490216D1FE0E16B09B120468847606DDF
:1018B00000282BD0606DC00714D0052084F83500B7
:1018C0002068016821F0010101600098401C00902F
:1018D000B84203D820680068C007F6D184F8358084
:1018E00084F83490E16C002910D001B02046BDE8A6
:1018F000F04308470168C905D5D4016821F01001FB
:10190000016084F8358084F83490CCE7BDE8F88332
:10191000240000202DE9F041044600F063F906465A
:101920005CB1022084F83500002584F8345020682A
:10193000016821F0010101600DE00120BDE8F081A6
:1019400000F050F9801B052805D920206065032090
:1019500084F83500F2E720680068C007F0D12268FB
:10196000116820480140D4E901031843D4E9033643
:101970003343184363691843A3691843E369184361
:10198000236A18430843616A042903D1D4E90B137D
:1019900019430843106020684069666A20F0070117
:1019A00030460E43012704280CD1A06A0643E06AA2
:1019B00040B12046FFF77EF820B14020606584F8F2
:1019C0003570BAE7206846612046FFF75FF894F863
:1019D0005C203F2191408160656584F8357000206E
:1019E000ACE700003F8010F02DE9F84FDFF8BCA114
:1019F0000022012503264FF00F090AF1040BAAF17A
:101A0000040E00BF0B6805FA02F42340A34270D114
:101A10000F7907F00307012F01D0022F16D1876835
:101A20004FEA420806FA08FC27EA0C07D1F80CC076
:101A30000CFA08FC4CEA070CC0F808C04768A7433A
:101A40000C79C4F3001494403C4344600C79E443A3
:101A5000A4070AD0C4684FEA420C06FA0CF7BC434C
:101A60008F6807FA0CF72743C7600C7904F003046A
:101A7000022C12D1D40800EB840CDCF8204057076C
:101A8000FF0E09FA07F824EA0804D1F8108008FAD2
:101A900007F848EA0408CCF8208004684FEA420CB2
:101AA00006FA0CF7BC430F7907F0030707FA0CF7A7
:101AB000274307604C6814F4403F70D03C4C2768C3
:101AC00047F480472760246822F0030704F4804429
:101AD0000094384C07EB040CDCF8084897074FEAF1
:101AE000177809FA08F7BC43334FB84202D10027F0
:101AF00024E054E0314FB84201D101271EE0304FBD
:101B0000B84201D1022719E02E4FB84201D1032774
:101B100014E02D4FB84201D104270FE02B4FB842FB
:101B200001D105270AE02A4FB84201D1062705E076
:101B3000284FB84201D1072700E0082707FA08F725
:101B40002743CCF80878DAF800405746D1F804C0AB
:101B50009C435FEACC2C00D51C433C60DBF8004082
:101B60005F46D1F804C09C435FEA8C2C00D51C432F
:101B70003C60DEF800407746D1F804C09C435FEA41
:101B80008C3C00D51C433C60084F083F3C68D1F8B2
:101B900004C09C435FEACC3C00D51C433C60521C13
:101BA000102AFFF42FAFBDE8F88F0000083C014079
:101BB000443802400030014000000240000402406E
:101BC00000080240000C02400010024000140240D5
:101BD00000180240001C02400AB1816170470904EC
:101BE000FBE70000014880687047000018000020F3
:101BF0000248816802781144816070471800002013
:101C00000B4810B5016841F400710160016841F4AE
:101C100080610160016841F480710160032000F07F
:101C200099F80F2000F006F800F04AF8002010BDE7
:101C3000003C024030B505461C4887B000240168CE
:101C400041F001010160006806A900F00100009068
:101C500001A800F02BF900F059F915494000B0FB3C
:101C6000F1F11548134A491E026040F2E732C0E91B
:101C70000324C0E90114846100F08AFB040012D13E
:101C80000D4800F0E3FB04000DD1192000F034F8FA
:101C9000102D07D200222946192000F03BF80748F2
:101CA000056000E0012407B0204630BD4438024002
:101CB00040420F0000000140900200201C00002064
:101CC0000C4882B0016841F480410160006800F472
:101CD000804000900748001F016841F0805101607A
:101CE0000068002200F0805000900F21901E02B08A
:101CF00000F010B844380240002809DB00F01F0251
:101D0000012191404009800000F1E020C0F800115D
:101D100070470000F0B40E4B1B680C46C3F302235F
:101D2000C3F10705042D00D90425191D072901D287
:101D3000002300E0DB1E012606FA05F1491E2140C2
:101D400099409E40761E16403143F0BC02F0CABC5A
:101D50000CED00E0064900F0070208684FF6FF03AB
:101D6000184040EA0220034A104308607047000010
:101D70000CED00E00000FA052DE9F0470E460500E5
:101D800065D0DFF81481D8F80000F7B200F0070042
:101D9000B04207D288F80070D8F8000000F00700C1
:101DA000B04254D128683D4C810712D5400703D575
:101DB000206840F4E05020602878000703D52068B0
:101DC00040F4604020602068A96820F0F0000843DB
:101DD00020602878C0072DD030496868083901286C
:101DE00012D0022813D0032811D0096889070029CE
:101DF0002DDA216821F0030101432160FFF7F2FE93
:101E0000814641F2883A0EE009688903EFE70968E4
:101E10008901ECE7FFF7E6FEA0EB0901514502D985
:101E20000320BDE8F0872068696800F00C00B0EB83
:101E3000810FEFD1D8F80010404601F00701B14200
:101E400007D90770006800F00700B04201D00120F8
:101E5000E7E72878400705D52068E96820F4E050D6
:101E6000084320602878000706D52068296920F4F7
:101E7000604040EAC100206000F058F82168084A3C
:101E8000C1F30311515CC840064908600648006868
:101E9000FFF7D0FE0020C4E7003C024008380240B3
:101EA00040640008240000201C0000200F22026073
:101EB0000C4A136803F003034360136803F0F00354
:101EC0008360136803F4E053C36012684FF4E05377
:101ED00003EAD20202610448006800F007000860CB
:101EE0007047000008380240003C024004480549A1
:101EF00000680968044AC1F38221515CC8407047F8
:101F000024000020083802405064000804480549B5
:101F100000680968044AC1F34231515CC840704707
:101F2000240000200838024050640008154810B50D
:101F3000006810F00C02144813D01449042A0FD082
:101F4000082A0ED10F4C241F2268236802F03F029A
:101F50005B0207D52068C0F38810A0FB010106E0F2
:101F6000084610BD2168C1F38811A1FB00010023C0
:101F7000FEF7DAF92168C1F30141491C4900B0FBC1
:101F8000F1F010BD083802400024F40040787D01D3
:101F90002DE9F84F04006ED02078DFF84C93C0078D
:101FA000A9F104054AD009F104000168C1F38101D7
:101FB000012908D00068C0F3810002280AD1D9F8AD
:101FC0000000400206D52868800337D560680028E5
:101FD000E1D033E06068B0F5803F10D0B0F5A02FBD
:101FE000286810D020F480302860286820F48020F1
:101FF00028606068A8B1FFF7F5FD06460DE0286887
:1020000040F48030F4E740F480202860F7E700BF18
:10201000FFF7E8FD801B642873D828688003F7D594
:102020000CE0FFF7DFFD064605E000BFFFF7DAFD35
:10203000801B6428F0D828688003F7D42078DFF864
:10204000AC8280074FF0000A3ED5A748001D01680A
:1020500011F00C0F08D00068C0F3810002280BD1EA
:10206000D9F80000400207D42868800716D5E06838
:10207000012800D112E033E1E068B8B10120C8F8CE
:102080000000FFF7AFFD064605E000BFFFF7AAFD21
:10209000801B0228C0D828688007F7D528682169E6
:1020A00020F0F80040EAC10028600DE0C8F800A068
:1020B000FFF798FD064604E0FFF794FD801B022819
:1020C0001FD828688007F7D42078000722D5864FCC
:1020D00087486169703771B101210160FFF782FDA6
:1020E000064604E0FFF77EFD801B022809D8386809
:1020F0008007F7D50EE0C0F800A0FFF773FD064695
:1021000005E082E0FFF76EFD801B02287DD838686D
:102110008007F7D42078400768D5DFF8CCB10027D6
:102120000BF13C0BDBF80000C0000BD4DBF8001017
:1021300041F08051CBF80010DBF80000012700F0DF
:10214000805000906B4E3068C00510D4306840F469
:1021500080703060FFF746FD009005E0FFF742FD1C
:102160000099401A022850D83068C005F6D55E4E56
:10217000A0686C3601280FD00528306810D020F0F8
:1021800001003060306820F004003060A068B8B111
:10219000FFF728FD00900FE0306840F00100F4E701
:1021A00040F004003060F7E7FFF71CFD0099411A8A
:1021B00041F28830814266D830688007F4D50EE05D
:1021C000FFF710FD009007E0FFF70CFD0099411AA2
:1021D00041F28830814256D830688007F4D42FB15C
:1021E000DBF8001021F08051CBF80010A069C8B3D3
:1021F0003D49091D0968C1F3810102294AD002281D
:10220000504607D0C8F8600000E03CE0FFF7EAFC69
:1022100004463BE04746C8F86000FFF7E3FC06468B
:1022200005E000BFFFF7DEFC801B02282BD82868E2
:102230008001F7D4D4E907010843A16A2E4A49086E
:1022400002EB0141626A41EA8211084394F82C10C2
:1022500040EA0161C9F8001001203866FFF7C2FCAE
:10226000044606E03EE000BFFFF7BCFC001B02286E
:1022700009D828688001F7D534E000BFFFF7B2FC29
:10228000001B022802D90320BDE8F88F28688001CE
:10229000F4D427E00128F7D0D9F80000E26900F46F
:1022A000800191421CD1226A00F03F01914217D176
:1022B00047F6C071626A0140B1EB821F10D1A26A79
:1022C0004FF0FF3300F4403103EB5202B1EB024F09
:1022D00006D194F82C1000F07060B0EB016F01D0C3
:1022E0000120D1E70020CFE7043802400000474238
:1022F000800E4742007000400000FFFF70477047AB
:1023000070B590F83C20012A32D0012480F83C407E
:10231000022280F83D2003685A689D6822F070060A
:102320000A6832435A60134B02689A4214D0B2F1E1
:10233000804F11D0104B9A420ED0104B9A420BD0C6
:102340000F4B9A4208D00F4B9A4205D00E4B9A423F
:1023500002D00E4B9A4204D1496825F080031943FC
:10236000916080F83D40002180F83C10084670BD27
:10237000022070BD00000140000400400008004041
:10238000000C0040000401400040014000180040E3
:1023900010B5040003D094F83D0010B107E001200F
:1023A00010BD002084F83C00204600F01FF80220F9
:1023B00084F83D00211D206801F050F9012084F8C7
:1023C000460084F83E0084F83F0084F8400084F81A
:1023D000410084F8420084F8430084F8440084F803
:1023E000450084F83D00002010BD000008B50168DC
:1023F0001448B1F1804F14D0134A914220D10168A2
:1024000041F0020101600068002200F0020000902B
:1024100005211D20FFF77EFC1D20BDE80840FFF7C9
:102420006BBC016841F0010101600068002200F00E
:102430000100009005211C20FFF76CFC1C20ECE73C
:1024400008BD0000403802400004004090F83D10F4
:10245000012901D001207047022180F83D10016858
:10246000CA6842F00102CA6000681149884214D06B
:10247000B0F1804F11D00F4988420ED00E498842EA
:102480000BD00E49884208D00D49884205D00D492D
:10249000884202D00C49884204D1816801F00701CA
:1024A000062903D0016841F0010101600020704756
:1024B000000001400004004000080040000C004003
:1024C00000040140004001400018004070B504467F
:1024D00090F83C000025012817D0012684F83C60C4
:1024E000022084F83D002068826822F0770222F4FE
:1024F0007F4282600868502838D00DDC20284FD0F9
:1025000005DC90B3102811D14AE0022070BD3028BC
:1025100046D040280AD13BE060282FD070280DD04B
:10252000B0F5805F03D0B0F5005F12D0012584F8CC
:102530003D60002084F83C00284670BDCB68D1E99E
:102540000121206801F0F6F82068816841F07701E8
:1025500009E0CB68D1E90121206801F0EBF820689F
:10256000816841F480418160E1E719E0CA68496807
:10257000206801F0F1F85021206806E0CA68496837
:10258000206801F0FAF86021206801F0DDF8CEE75C
:10259000CA684968206801F0DFF840212068F4E744
:1025A000226801461046F0E770472DE9F0410446E5
:1025B0000068C66805694FF00007A90713D5B10781
:1025C00011D5F91E016101202077206880698007FC
:1025D000204602D0FFF7E8FF04E000F07EF8204636
:1025E00000F07CF82777680716D5700714D52168A6
:1025F0006FF004000861022020772068806910F4E1
:10260000407F204602D0FFF7CFFF04E000F065F8DE
:10261000204600F063F82777280715D5300713D533
:1026200021686FF008000861042020772068C069E5
:102630008007204602D0FFF7B7FF04E000F04DF816
:10264000204600F04BF82777E80616D5F00614D59B
:1026500021686FF010000861082020772068C069A9
:1026600010F4407F204602D0FFF79EFF04E000F008
:1026700034F8204600F032F82777E80708D0F00752
:1026800006D021686FF001000861204600F028F8AC
:10269000280608D5300606D521686FF0800008614D
:1026A0002046FFF72BFE680608D5700606D5216880
:1026B0006FF040000861204600F0B2F8A8060AD585
:1026C000B00608D521686FF0200008612046BDE8FB
:1026D000F041FFF714BEBDE8F0817047704700007D
:1026E0002DE9FC41054600684249884201D1FFF7C7
:1026F0007FFA41492868884269D1404C00266068C9
:10270000411C61600A2802DB666001F035FAA068AE
:10271000411CA160142802DBA66001F087FD6278ED
:102720000020511C61700A2A51D3009600210196A5
:10273000334FDFF8D0C001266B4600BFC1EBC102AA
:1027400002EB420207EB820292F838E0BEF1000F82
:1027500001D05E54012092F8392012B10220585461
:10276000012001EB410202EBC1020CEBC20292F824
:10277000532012B1581802710120491C0429DDDBD5
:1027800028B32148FDF7F7FF10B12670BDE8FC81A2
:102790001D490820D1F8242301EB02121073D1F84F
:1027A00024231A4801EB02129060D1F82403DDE9DA
:1027B000002301EB0010C0E90023D1F824033222EA
:1027C000401C90FBF2F302FB1300C1F824032868BD
:1027D000B0F1804FDAD10E490B48FDF739FF0D4CAF
:1027E0000D482146FDF734FF2146BDE8FC410B486A
:1027F000FDF72EBF00000140000400400000002053
:10280000AC4B0020285000202C5C0020EE0102027E
:102810000064004000680040FC4C0020885100200B
:102820007047704770470000F8B5016804460868B3
:10283000CA684B6910F00F0F4FF0000559D003F034
:10284000010602F49077374365D0C10705D0D10562
:1028500003D5616C41F001016164410705D5D907D9
:1028600003D0616C41F002016164810705D5D9078D
:1028700003D0616C41F004016164010707D502F0E7
:102880002001314303D0616C41F008016164616C47
:1028900000293AD0800604D5900602D5204600F0E3
:1028A000ADFF20684069616CC0F38010090700D457
:1028B00060B3204600F07BFF20684069400621D5C8
:1028C0002068143050E8001F21F0400140E8001259
:1028D000002AF5D1E06BA8B16E490165E06BFEF707
:1028E00037FF002811D0E06B016D01B0BDE8F0406A
:1028F000084783060FD593060DD52046BDE8F8405E
:1029000000F07CBF2046FFF78DFFF8BD2046FFF7A3
:1029100089FF6564F8BD266B2023012E7DD1C60694
:102920007BD5D60679D508684868009048694FF08D
:102930000206400641D5E16B086840680004000CBF
:10294000E8D0A28D8242E5D9E085C869B0F5807FE4
:102950002DD020680C3050E8001F21F4807140E831
:102960000012002AF5D12068143050E8001F21F031
:10297000010140E80012002AF5D12068143050E827
:10298000001F21F0400140E80012002AF5D184F830
:102990004230256320680C3050E8001F21F0100100
:1029A00040E80012002AF5D1E06BFEF788FE66636E
:1029B000A08DE18D401A81B22AE0A08DE18D401AF0
:1029C00081B2E08D0028A5D00029A3D022680C3266
:1029D00052E8000F20F4907042E80007002FF5D174
:1029E0002068143050E8002F22F0010240E8002750
:1029F000002FF5D184F84230256320680C3050E870
:102A0000002F22F0100240E80023002BF5D166636E
:102A10002046FFF706FFF8BDFFE705062BD5150694
:102A200029D594F841002128F5D1A068B0F5805F40
:102A300001D12069B0B1206A411C2162216800786F
:102A40004860E08C401E0004000CE084E3D1206864
:102A5000C16821F08001C1602068C16841F0400177
:102A6000C160D8E7206A0088C0F308004860206A87
:102A7000801C2062E5E74006CDD55006CBD5CA685C
:102A8000204622F04002CA6084F8413000F0ABF8E2
:102A9000C1E700009F37000870B5040004D094F827
:102AA0004100002510B106E0012070BD84F84050BF
:102AB000204600F023F8242084F841002068C168F3
:102AC00021F40051C160204600F0FAFE206801693F
:102AD00021F4904101612068416921F02A0141619E
:102AE0002068C16841F40051C1606564202084F809
:102AF000410084F842006563002070BD2DE9F04379
:102B000087B0064614216846FDF704FD3049306859
:102B100088425AD12F480024016841F400310160F5
:102B2000006800F4003005902A481038016841F030
:102B3000010101600068694600F0010005900C2069
:102B400000900220CDE901040320039007200490A7
:102B50002148FEF749FF224D20484FF000672860CA
:102B6000C5E901744FF48068C5E903486C614FF40E
:102B70000039AC61C5E9074928466C62FEF7CAFE18
:102B800008B1FEF78BF9F563AE63154D1348603558
:102B90001830E5E802074020A5E81101104845F883
:102BA00014496030AC61C5E907496C62FEF7B2FEBA
:102BB00008B1FEF773F9B563002205212620AE6344
:102BC000FFF7A8F82620FFF797F807B0BDE8F083D5
:102BD000004400404038024000000240886002404B
:102BE000D001002070477047FEE7000010B5214C6F
:102BF000012210212046FEF7EFFFC82001F000FE61
:102C0000002210212046FEF7E7FFC82001F0F8FD62
:102C1000012220212046FEF7DFFFC82001F0F0FD51
:102C2000002220212046FEF7D7FFC82001F0E8FD52
:102C3000012240212046FEF7CFFFC82001F0E0FD31
:102C4000002240212046FEF7C7FFC82001F0D8FD32
:102C5000012280212046FEF7BFFFC82001F0D0FDF1
:102C6000002280212046FEF7B7FFBDE81040C820B3
:102C700001F0C6BD0000024070B53B488AB039493A
:102C8000016007210024C0E901144FF44031C0E97C
:102C9000034144610476012545768576C476047740
:102CA0004477FEF76CFB08B1FEF7F8F80420CDE995
:102CB0000440CDE9065444F22000009044F2400064
:102CC000019044F26000029008954FF481400E2676
:102CD0000390694609962448FEF752F908B1FEF7B9
:102CE000DDF80520CDE90440CDE9065444F2A0000A
:102CF000009044F2E00002904FF482400190089569
:102D0000694609961848FEF73BF908B1FEF7C6F880
:102D100005A90620089581E831004FF40160009074
:102D200041F2080001904FF6FF7002904FF4784096
:102D30000996CDE9030469460B48FEF721F908B16D
:102D4000FEF7ACF80848FEF787FC08B1FEF7A6F8D6
:102D500002210548FEF7A4F8002801D0FEF79EF8EE
:102D60000AB070BD00640040A80000202DE9F041C9
:102D700048488AB04649016007210025C0E901158D
:102D80004FF44031C0E90351456105760124447692
:102D90008476C57605774577FEF7F1FA08B1FEF738
:102DA0007DF80F20CDE90440CDE906544FF00E0820
:102DB00001AA08944FF400404FF6FF764FF478478D
:102DC000CDF82480009582E8C10069463148FEF7BD
:102DD000D7F808B1FEF762F81020CDE90440CDE93C
:102DE000065401A908944FF49040009581E8C10071
:102DF000464669462748CDF82480FEF7C1F808B159
:102E0000FEF74CF805A91620089481E8310020202F
:102E10000090402001906020029080200996CDE92A
:102E2000030469461B48FEF7ABF808B1FEF736F815
:102E300005A91720089481E83100A0200090C02047
:102E40000190E02002904FF480700996CDE90304D0
:102E500069461048FEF794F808B1FEF71FF80D48D0
:102E6000FEF7FAFB08B1FEF719F802210948FEF750
:102E700017F808B1FEF712F810210648FEF710F80F
:102E8000002801D0FEF70AF80AB0BDE8F081000082
:102E900000680040D00000200D4808B5016841F4EA
:102EA000001101600068002200F40010009005216C
:102EB0001020FEF72FFF1020FEF71EFF0022052135
:102EC0001120FEF727FFBDE808401120FEF714BFD0
:102ED0003038024010B5074A0021074801F0CCFC09
:102EE000064C044A002120602432054801F0C4FC4D
:102EF000606010BDF0630008713500080C00002010
:102F0000DB39000870B586B014216846FDF702FB76
:102F10001B480024016841F080010160016801F054
:102F200080010591016841F001010160016801F033
:102F300001010591016841F0020101600068114E34
:102F400000F00200059000224FF4FE613046FEF7CB
:102F500043FE4FF4F87000900125CDE90154694615
:102F600030460394FEF740FD4FF4C060CDE9000504
:102F7000CDE9025469463046FEF736FD06B070BD15
:102F8000303802400000024010B586B000241948D5
:102F9000009401940294039404944FF080410594AA
:102FA00001605321C0E901146321C0E90314846165
:102FB000FFF7EEF908B1FDF771FF4FF48050009074
:102FC00069460C48FFF782FA08B1FDF767FF0494E1
:102FD00004A908480594FFF793F908B1FDF75EFFCF
:102FE0000448FFF733FA002801D0FDF757FF06B079
:102FF00010BD0000F800002010B586B000241A486B
:103000000094019402940394049416490594016079
:103010005321C0E9011440F2E731C0E9031484618F
:10302000FFF7B6F908B1FDF739FF4FF48050009073
:1030300069460D48FFF74AFA08B1FDF72FFF0494DF
:1030400004A909480594FFF75BF908B1FDF726FFCD
:103050000548FFF7FBF9002801D0FDF71FFF06B078
:1030600010BD000000040040400100200C4810B5D5
:103070000A4901604FF4E1314160002181600C2276
:10308000C160C0E904128161C161FFF705FD00283C
:1030900003D0BDE81040FDF701BF10BD0044004063
:1030A000880100202DE9F04107461C4615460E46D2
:1030B0001848DDF81880FDF75EFB20B116490120A5
:1030C0000870BDE8F0811348D0F8241300EB01111B
:1030D0008E60D0F8241300EB01110F73D0F8241385
:1030E00000EB01110D70D0F8241300EB01114C70AE
:1030F000D0F8242300EB021282F80280D0F82413C7
:103100003222491C91FBF2F302FB1311C0F8241385
:10311000D7E700002C5C002000000020FEE7000044
:103120002DE9F04381462DED028B01002C489FEDE7
:103130002D8A2D4D81B04FF000042AD000210126A8
:10314000C1EBC10202EB420200F8226000EB8202F6
:10315000947053780BB982ED028A491C0429EFDB85
:1031600000274FF0030800BF07EB470000EBC70044
:1031700005EBC001B0EE480A01F8546F4E7005F837
:103180003080781CC0B201F027FA7F1C042FEBDBE3
:103190001AE0C1EBC10202EB420200EB820383EDB5
:1031A000028A00F822405C70491C0429F1DB0020EF
:1031B00000EB400101EBC00105EBC101401C01F82F
:1031C000544F04284C70F3DB4B464D220749022034
:1031D0000094FFF767FF01B0BDEC028BBDE8F08300
:1031E000AC4B00200000000028500020010102022A
:1031F000FEE780EC030AC160002101614161C16109
:1032000081610162704700003EB500202B4C0190A7
:103210000290009094ED0B0A6A46BDEEC00A10EED3
:10322000100A01B201A801F085FA94ED210A6A465C
:10323000BDEEC00A10EE100A01B201A801F07AFA40
:1032400094ED370A6A46BDEEC00A10EE100A01B2CC
:1032500001A801F06FFA94ED4D0A6A46BDEEC00A6E
:1032600010EE100A01B201A801F064FA1448FDF74B
:1032700082FA18B11349012008703EBD1048082198
:10328000D0F8242300EB02121173D0F824230E4946
:1032900000EB02129160D0F82413DDE9012300EB6A
:1032A0000111C1E90023D0F824133222491C91FBFB
:1032B000F2F302FB1311C0F824133EBD2850002086
:1032C0002C5C002000000020170102023EB5002007
:1032D0002B4C01900290009094ED090A6A46BDEED5
:1032E000C00A10EE100A01B201A801F023FA94ED11
:1032F0001F0A6A46BDEEC00A10EE100A01B201A80C
:1033000001F018FA94ED350A6A46BDEEC00A10EED7
:10331000100A01B201A801F00DFA94ED4B0A6A46B9
:10332000BDEEC00A10EE100A01B201A801F002FAC7
:103330001448FDF720FA18B11349012008703EBD6A
:1033400010480821D0F8242300EB02121173D0F8A2
:1033500024230E4900EB02129160D0F82413DDE91A
:10336000012300EB0111C1E90023D0F8241332221C
:10337000491C91FBF2F302FB1311C0F824133EBD6C
:10338000285000202C5C00200000002015010202C3
:1033900010B500202DED028B84B0324C01900290CC
:1033A000009094ED080AB1EE048A6A4620EE080AFD
:1033B000BDEEC00A10EE100A01B201A801F0BAF980
:1033C00094ED1E0A6A4620EE080ABDEEC00A10EE11
:1033D000100A01B201A801F0ADF994ED340A6A4671
:1033E00020EE080ABDEEC00A10EE100A01B201A8D4
:1033F00001F0A0F994ED4A0A6A4620EE080ABDEEF3
:10340000C00A10EE100A01B201A801F093F91648A3
:10341000FDF7B1F930B115490120087004B0BDECD9
:10342000028B10BD10480821D0F8242300EB0212B3
:103430001173D0F824230E4900EB02129160D0F8EA
:103440002413DDE9012300EB0111C1E90023D0F8C9
:1034500024133222491C91FBF2F302FB1311C0F832
:103460002413DBE7285000202C5C00200000002003
:103470001601020238B5B0F90030B0F9021000EEC2
:10348000103AB0F90420B0F90640B8EEC00A14486A
:1034900080ED110A00EE101A0021B8EEC00A80ED8E
:1034A000270A00EE102A0322B8EEC00A80ED3D0A7A
:1034B00000EE104AB8EEC00A80ED530A01EB41035A
:1034C00003EBC103491C00F833200429F6DB41203B
:1034D00000905423472203490420FFF7E3FD38BD41
:1034E000285000200501020238B50521B0F902403C
:1034F000B0F90420B0F90050B0F9063095FBF1F0B6
:1035000094FBF1F400EE100A92FBF1F2B8EEC00A5F
:10351000154893FBF1F180ED100A00EE104AB8EE69
:10352000C00A80ED260A00EE102AB8EEC00A80ED2F
:103530003C0A00EE101A00215FF00202B8EEC00A49
:1035400080ED520A01EB410303EBC103491C00F873
:1035500033200429F6DB56200090542347220349E8
:103560000420FFF79FFD38BD28500020060102020D
:10357000FFF73CFBFCE710B54FF0E020006902F0DC
:1035800081FB012803D0BDE8104002F0AFB810BDA8
:1035900030B593B030216846FCF7BCFF14210CA86D
:1035A000FCF7B8FF1E480025016841F0805101601A
:1035B000006800F0805011901A48016841F4804181
:1035C00001600068022400F4804011900120009006
:1035D000000401908001CDE90640192008904FF4C5
:1035E000A870CDE9090404200B906846FEF7D0FCD2
:1035F00008B172B6FEE70CA90F2081E831004FF444
:10360000A0500F904FF48050109005210CA8FEF7A9
:10361000B3FB002801D072B6FEE713B030BD000046
:1036200040380240007000400248016841F47001D7
:103630000160704788ED00E00148FEF7B6BF00006A
:10364000900200200148FEF7B0BF0000F800002003
:103650000148FEF7AABF000040010020F0B5026853
:10366000294C2A4D2A4E2B4F2B4B4FF0804CA04219
:1036700009D0604507D0A84205D0B04203D0B84277
:1036800001D0984204D122F0700E4A6842EA0E023C
:10369000A0421BD0604519D0A84217D0B04215D027
:1036A000B84213D0984211D01C4DA8420ED01C4DE8
:1036B000A8420BD01B4DA84208D01B4DA84205D0F4
:1036C0001A4DA84202D01A4DA84203D122F44075E7
:1036D000CA682A434D6922F080022A4302608A6840
:1036E000C2620A688262A04201D0984201D109698F
:1036F0000163012141610169C90703D0016921F01A
:1037000001010161F0BD0000000001400004004023
:1037100000080040000C004000040140004001404F
:10372000004401400048014000180040001C0040D7
:103730000020004010B5846842EA032224F47F444C
:103740000A432243826010BD826822F070020A435D
:1037500042F007018160704710B5036A046A24F0E3
:1037600001040462846924F0F00444EA021423F0A2
:103770000A020A438461026210BD10B5036A046A3A
:1037800024F010040462846923F0A00324F470443C
:1037900044EA023243EA01118261016210BD10B5B0
:1037A000806B0021C185C184FFF73CF810BD016822
:1037B0000C3151E8002F22F4907241E80023002BD5
:1037C000F5D10168143151E8002F22F0010241E8DF
:1037D0000023002BF5D1016B012909D101680C31BF
:1037E00051E8002F22F0100241E80023002BF5D110
:1037F000202180F8421000210163704708B590F83D
:103800004210222901D0022008BD82684FF4805363
:103810009A4201D1016921B1816A9A421BD04AB111
:103820000AE00268816A5268C2F308020A80816A6B
:10383000891C08E0026972B10268526802F07F02D6
:103840000A70816A491C8162C18D491E0904090CF4
:10385000C18503D01BE002685268F1E70168CA68BD
:1038600022F02002CA600168CA6822F48072CA602D
:1038700001684A6922F001024A61202180F8421061
:1038800000214163026B012A03D0FFF7ABF900204E
:1038900008BD016301680C3151E8002F22F01002CD
:1038A00041E80023002BF5D101680A68D20602D551
:1038B0000A6849680091818DFEF7B3FFE7E70000D1
:1038C00070B5044600680169E26821F44051114373
:1038D00001612169A068E2690843616911430843F5
:1038E0002168CA6849F20C639A430243CA6020689F
:1038F0004169A26921F44071114341613149206855
:10390000884202D03049884202D1FEF7FFFA01E036
:10391000FEF7ECFAE2690023192164253226B2F59C
:10392000004F626828D0A0FB0101930F9200FCF7C2
:10393000FBFC0146B0FBF5F06FF01802504301EBC1
:10394000800006EB0010B0FBF5F000F0F002B1FBD8
:10395000F5F002EB0012B1FBF5F06FF018035843DD
:1039600001EB800006EB0010B0FBF5F000F00F005B
:1039700021681044886070BDA0FB010192185B4172
:10398000FCF7D2FC0146B0FBF5F00201B1FBF5F00B
:103990006FF01803584301EB800006EBC000B0FB4A
:1039A000F5F000F0F80002EB4002B1FBF5F05843EF
:1039B00001EB800006EBC000B0FBF5F000F0070063
:1039C000D6E7000000100140001401400148FEF756
:1039D0002BBF000088010020FEE7642000F010FFEC
:1039E000FBE7000030B505462DED028B81B00020CD
:1039F0000090B0EE408A1948FCF7BDFE30B118497E
:103A00000120087001B0BDEC028B30BD9FED150A9E
:103A1000124C6A4628EE000AD4F8240304EB001086
:103A2000BCEEC00A10EE101A00F08FFE0E480543DF
:103A3000D4F8240304EB00108560D4F82413009814
:103A400004EB01110873D4F824033221401C90FBCD
:103A5000F1F201FB1200C4F82403D3E7FC4C002070
:103A60000000002000007A44000C00F030B505464C
:103A70002DED028B81B000200090B0EE408A1948F5
:103A8000FCF779FE30B118490120087001B0BDEC97
:103A9000028B30BD9FED150A124C6A4628EE000AD3
:103AA000D4F8240304EB0010BDEEC00A10EE101A87
:103AB00000F04BFE0E480543D4F8240304EB00103D
:103AC0008560D4F82413009804EB01110873D4F82E
:103AD00024033221401C90FBF1F201FB1200C4F8D8
:103AE0002403D3E7FC4C00200000002000007A44AF
:103AF000000100F030B505462DED028B81B00020AD
:103B00000090B0EE408A1948FCF735FE30B11849F4
:103B10000120087001B0BDEC028B30BD9FED150A8D
:103B2000124C6A4628EE000AD4F8240304EB001075
:103B3000BCEEC00A10EE101A00F007FED4F82413F1
:103B400045F0704004EB01118860D4F8241300980C
:103B500004EB01110873D4F824033221401C90FBBC
:103B6000F1F201FB1200C4F82403D3E7FC4C00205F
:103B7000000000200050C34770B52C4E002400BF49
:103B8000C4EBC40000EB400016F8201099B306EB1C
:103B9000800595F8340010B1E0B200F01FFA95F8F6
:103BA000350010B1E0B200F0C9F9687858B3A878D0
:103BB000052832D2DFE800F0031118202700E8784A
:103BC000D5ED020A00EE100A601CC0B2B8EE400A41
:103BD00020EE800A00F0BCF81FE0601C95ED030A9F
:103BE000C0B200F071F818E0601C95ED010AC0B297
:103BF000FFF73CFF11E014E0601C95ED040AC0B231
:103C0000FFF778FF09E0B5F9140000EE100A601C18
:103C1000C0B2B8EEC00AFFF7E5FE641C042CAFDBAF
:103C200070BD601CC0B29FED020AE1E7AC4B002002
:103C3000000000002DE9F0471E2086B060F31F61F0
:103C400001239FED1E0ADFED1E0A8DED000A63F3CE
:103C50001741CDED030A63F30F218DED010A052015
:103C600063F30701ADF810000022164C92464FF0A6
:103C7000070900BFC2EBC20000EB400504EB850062
:103C80004163009E019FDDF80880DDF80CC000F163
:103C9000040E8EE8C011BDF810608682059E866114
:103CA000837080F801A004F825A0521C80F80390CE
:103CB000042ADFDB06B0BDE8F0870000000000004A
:103CC000CDCCCC3DAC4B002030B505462DED028B64
:103CD00081B000200090B0EE408A1948FCF74BFDFF
:103CE00030B118490120087001B0BDEC028B30BD25
:103CF0009FED150A124C6A4628EE000AD4F82403F8
:103D000004EB0010BCEEC00A10EE101A00F01DFD0E
:103D10000E480543D4F8240304EB00108560D4F862
:103D20002413009804EB01110873D4F82403322102
:103D3000401C90FBF1F201FB1200C4F82403D3E70E
:103D4000FC4C00200000002000247449000400F016
:103D500030B505462DED028B81B000200090B0EE0D
:103D6000408A1748FCF707FD30B11649012008705A
:103D700001B0BDEC028B30BD114CBDEEC80A6A46E5
:103D8000D4F8240310EE101A04EB001000F0DDFC50
:103D90000D480543D4F8240304EB00108560D4F8E3
:103DA0002413009804EB01110873D4F82403322182
:103DB000401C90FBF1F201FB1200C4F82403D7E78A
:103DC000FC4C002000000020000300F02DE9F84327
:103DD0000F4607F00F04641E01F00F00401EE4B20E
:103DE000C1B2514EC4EBC4044FF000080B9D092032
:103DF00004EB44044FF0010906EB8404CDF8008085
:103E000005295BD0B0EB172F54D16946B7EE000AF5
:103E1000284600F083FCE078694600EE900A2846C8
:103E2000F8EE600A80EE201AB2EE040A84ED081A59
:103E300000F068FC84ED070A6946B2EE040A2846E1
:103E400000F060FC84ED090AE91DA81D1034FCF7A0
:103E5000AAFCE88824F8380F34F8040BB6F84A10A6
:103E6000401A208034F8040C24F8020C34F94C0970
:103E700000282046B4F94C0000DC4042B0F5E16F68
:103E800005DDB4F84C00A0F56160A4F84C00216D8C
:103E9000B4F94C0001442165206D02F033FA9FED26
:103EA000231B53EC112B02F0D5F802F0A1F820638C
:103EB00084F80190C4F83C80BDE8F883042AF9D165
:103EC000002BF7D11B4EB0EB172F18D16946B7EE78
:103ED000000A284600F022FC1348694690F8A70122
:103EE00000EE900A2846F8EE600A80EE201AB2EE44
:103EF000040A86ED081A00F005FC86ED070A10207A
:103F0000B0EB172F0BD100986946801D00909FEDF4
:103F10000A0A284600F0F6FB034880ED720A0249BF
:103F200081F8A591C6E70000AC4B0020000000001E
:103F300000002440504D002000004842F0B5C0EB86
:103F4000C001224B01EB410403EB8402204DD169F7
:103F5000A94237DD13F82410002933D0516C002614
:103F60004D1C556440F6B835A9422CD9012182F880
:103F7000391018490225401CD1F8247301EB0717AA
:103F80003D73D1F824C3144F01EB0C1CCCF808701E
:103F9000D1F8247301EB07173870D1F8240301EB33
:103FA00000104570D1F824033225401C90FBF5F732
:103FB00005FB1700C1F8240392F83600002801D051
:103FC00003F82460F0BD82F83860F0BDAC4B0020EF
:103FD000000034422C5C0020EE010202C0EBC00065
:103FE0000D4900EB400310B501EB8300C26B541C7C
:103FF000C463B2F57A7F0DD911F82310002909D0D6
:10400000016C4A1C0264322901D9012100E000211F
:1040100080F8381010BD0000AC4B002010B50446ED
:104020001248FCF7A8FB01004FF0010002D0104934
:10403000087010BD0D495222D1F8243301EB03134F
:104040001A70D1F8242301EB02129460D1F82423D2
:1040500001EB02121073D1F824033222401C90FBB2
:10406000F2F302FB1300C1F8240310BD88510020B5
:104070000000002010B504461248FCF77CFB01004C
:104080004FF0010002D01049087010BD0D494022C8
:10409000D1F8243301EB03131A70D1F8242301EB78
:1040A00002129460D1F8242301EB02121073D1F8AC
:1040B00024033222401C90FBF2F302FB1300C1F8F0
:1040C000240310BD885100200000002010B50446D4
:1040D0001248FCF750FB01004FF0010002D01049DC
:1040E000087010BD0D493C22D1F8243301EB0313B5
:1040F0001A70D1F8242301EB02129460D1F8242322
:1041000001EB02121073D1F824033222401C90FB01
:10411000F2F302FB1300C1F8240310BD8851002004
:104120000000002010B504461248FCF724FB0100F3
:104130004FF0010002D01049087010BD0D49462211
:10414000D1F8243301EB03131A70D1F8242301EBC7
:1041500002129460D1F8242301EB02121073D1F8FB
:1041600024033222401C90FBF2F302FB1300C1F83F
:10417000240310BD885100200000002010B5044623
:104180001248FCF7F8FA01004FF0010002D0104984
:10419000087010BD0D495E22D1F8243301EB0313E2
:1041A0001A70D1F8242301EB02129460D1F8242371
:1041B00001EB02121073D1F824033222401C90FB51
:1041C000F2F302FB1300C1F8240310BD8851002054
:1041D0000000002010B504461248FCF7CCFA01009C
:1041E0004FF0010002D01049087010BD0D495C224B
:1041F000D1F8243301EB03131A70D1F8242301EB17
:1042000002129460D1F8242301EB02121073D1F84A
:1042100024033222401C90FBF2F302FB1300C1F88E
:10422000240310BD885100200000002070B5534DBC
:1042300000242DED028BB7EE008ADFED518A00BF1E
:1042400004EB440000EBC40005EBC00191F85420DE
:10425000002A77D091F8552072B315F83000002865
:1042600070D0012812D0022802D0032824D11AE0ED
:104270004878022804F10100C0B202D0B0EE000A72
:1042800018E091ED100A00F0EDF915E048780128EA
:1042900012D0601CC0B2B7EE000A0BE0601CC0B2C6
:1042A000B0EE680A06E0487803281ED0601CC0B251
:1042B000B0EE080A00F002F9661CF0B2FFF7AEFE9D
:1042C000F0B2FFF703FFF0B2FFF72CFFF0B2FFF7F9
:1042D00055FFF0B2FFF77EFFF0B2FFF7CBFE641C94
:1042E000042CADDBBDEC028B70BD91ED110AB5EE77
:1042F000C00AF1EE10FA39D091ED0A1AC0EE010AA7
:10430000F5EEC00AF1EE10FA02DDF0EE601A03E0FD
:10431000B1EE402AC2EE011A71EEC81AF5EEC01ACB
:10432000F1EE10FA0FDDF5EEC00AF1EE10FA03DC43
:10433000F1EE401AC1EE810A124970EEC80A10EE81
:10434000900A0CE015E0F5EEC00AF1EE10FA03DC7D
:10435000F1EE401AC1EE810AF1EE600AECE7884204
:10436000AADD601CC0B200F0F1F8A5E7886A064932
:10437000F5E74878002891D19EE7000028500020FA
:104380000000000017B7D138CDCC4C3E70B50024EA
:104390002DED028B2546154EDFED158AB7EE008A0E
:1043A00004EB440000EBC40106EBC100B0EE680A68
:1043B00080ED018A80ED028A80F8545080F85550D3
:1043C00006F8315080ED100A80ED110A80F8525045
:1043D000858180ED090A601CC0B200F0FDF8641C04
:1043E000042CDDDBBDEC028B70BD000028500020EA
:1043F0000000000010B5C0B2059904280A7820D842
:1044000000EB400404EBC0042948002300EBC40087
:10441000DFED280A9FED281A00F8053C522A26D025
:1044200010DC3C2A2DD0402A36D0462A09D1D1F8BA
:10443000011000EE101A20EE200AC0EE010A40ED35
:104440000C0A10BD5C2A17D05E2AFAD1D1F80110EF
:1044500040F8341C10ED140AC0EE801A50ED0D0A1D
:1044600081EE810A20EE200A00ED0D0A10BDD1F880
:10447000011040F82C1C10BDD1F8011040F8381C78
:1044800010BDD1F8011000EE101ABCEEC00A10EEFB
:10449000101A00F8571C10BDD1F8011000EE101AC8
:1044A000BCEEC00A10EE101A00F8051C10BD00008A
:1044B000285000200000B4433333B34010B5044605
:1044C0002DED028BB0EE408A1D48FCF754F928B15F
:1044D0001C4901200870BDEC028B10BDBCEEC80A5F
:1044E00004EB4401184A01EBC40110EE100A02EB80
:1044F000C10101F8580C12493D20D1F8242301EBE9
:1045000002121070D1F8240301EB001218EE100A09
:10451000C2F80100D1F8240301EB00108460D1F847
:104520002423052001EB02121073D1F82403322258
:10453000401C90FBF2F302FB1300C1F82403CAE70E
:1045400088510020000000202850002010B50446AB
:104550002DED028BB0EE408A1B48FCF70CF928B118
:104560001A4901200870BDEC028B10BDDFED180A5E
:104570001549472088EE200AD1F82423DFED150ADB
:1045800001EB02121070D1F8240301EB001220EEAF
:10459000200A10EE100AC2F80100D1F8240301EB42
:1045A00000108460D1F82423052001EB021210735F
:1045B000D1F824033222401C90FBF2F302FB1300DB
:1045C000C1F82403CFE7000088510020000000203C
:1045D0000000B4433333B34010B504462DED028BD5
:1045E000B0EE408A1B48FCF7C6F828B11A490120F2
:1045F0000870BDEC028B10BDDFED180A15495F2075
:1046000088EE200AD1F82423DFED150A01EB02120F
:104610001070D1F8240301EB001220EE200A10EEF6
:10462000100AC2F80100D1F8240301EB00108460E5
:10463000D1F82423052001EB02121073D1F82403D2
:104640003222401C90FBF2F302FB1300C1F824035A
:10465000CFE7000088510020000000200000B44394
:104660003333B34010B504462DED028BB0EE408AD3
:104670001948FCF780F828B1184901200870BDECF2
:10468000028B10BDDFED160A1349452088EE200A83
:10469000D1F8242301EB02121070D1F8240301EBAE
:1046A000001210EE100AC2F80100D1F8240301EB49
:1046B00000108460D1F82423052001EB021210734E
:1046C000D1F824033222401C90FBF2F302FB1300CA
:1046D000C1F82403D3E70000885100200000002027
:1046E000000070420907090E002804DB00F1E020F9
:1046F00080F80014704700F00F0000F1E02080F80F
:10470000141D704700B500F035F800EE900AB8EEC1
:10471000E01AC1EE000AB0EE600A00BD00B500F07C
:1047200031F800EE900AB8EEE01AC1EE000AB0EEE1
:10473000600A00BD10B513685C1C1460C1540C0AFB
:1047400011684B1C1360445410BD30B513680D0E36
:104750005C1C1460C55413680D0C5C1C1460C554BB
:1047600013680D0A5C1C1460C55413685C1C14604B
:10477000C15430BD0A681044921C00880A6040BAD7
:1047800000B270470B681A18C01C1268185C12BA85
:1047900022F0FF0210431B1D0B607047FDF730FA3B
:1047A000FCF79AF8FFF746FAFFF7F0FD01211148F0
:1047B000FBF7D4FF00211048FBF7D0FF01210F4881
:1047C000FBF7CCFFFEF7E4FEFEF79CFBFEF764FB75
:1047D000FEF752FAFEF710FCFEF7C8FAFEF7D4FB1C
:1047E000FEF744FC00F01AF8FEF774FB00F028F81E
:1047F000FEE70000FC4C0020885100202C5C0020CB
:1048000010B5EFF3058111B16FF0050403E000244A
:1048100008B100F001FE204610BD0000EFF3058056
:1048200010B16FF0050070470448016811B14FF0F6
:10483000FF307047012101600020704778000020A0
:1048400010B5EFF3058010B16FF0050010BD0848FA
:104850000168012902D04FF0FF3010BD054A002148
:1048600082F8141D0221016000F03EFE002010BD00
:10487000780000200BE000E02DE9FF414FEA010342
:104880004FF00005EFF30581039549BB40B3802746
:10489000182100244AB3166806B1344696691EB141
:1048A0003146761E382E02D21679F60703D0002044
:1048B00004B0BDE8F081566906B1B708D2F808C067
:1048C000BCF1000F0DD0D5685C2D18D312693AB138
:1048D00036B18DE806103A46214601F0A8F903905A
:1048E0000DE0D6685EB912694AB903AACDE9001293
:1048F000BAB2214601F06EF9012800D00395039861
:10490000D6E700002DE9F041134C0F460546E66856
:104910002068001D00F04AFC681C07D137B12168EF
:10492000BDE8F0410D48091D00F092BC20683544F7
:10493000B5424560216805D2A06BBDE8F041091D74
:1049400000F06EBC606B091D00F06AFCA06A854235
:1049500000D2A562BDE8F08128000020C807002031
:104960002DE9F041054600F07FFC2D4CA068401C6D
:10497000A06020682B4F10B1606930B32BE0256038
:10498000A068012827D1002606EB860007EB8000EF
:1049900000F038FC761C382EF6D3234800F032FCA9
:1049A0002148143000F02EFC1F48283000F02AFC6B
:1049B0001D483C3000F026FC1B48503000F022FC23
:1049C000194860631430A06305E02068E96AC06A92
:1049D000884200D82560606A401C60626864E86AAA
:1049E0002169884200D9206100EB800007EB80003C
:1049F000291D00F02DFC00F057FC606900280CD048
:104A00002068E96AC06A884207D208494FF080509E
:104A10000860BFF34F8FBFF36F8FBDE8F0810000D8
:104A200028000020180300207807002004ED00E093
:104A300038B500F019FC104C2068C8B90F4800F0D8
:104A4000E1FB0E48143000F0DDFB0C48E060143050
:104A500020610A4B0020F03B009003F1500210212E
:104A60000A2000F059FE206010B105A100F09EFC64
:104A7000BDE8384000F018BC64000020CC080020DD
:104A8000546D72510000000030B4026C0B46002AD5
:104A90000BD0C1681144C1608468A14201D3016890
:104AA000C16030BC1846FBF7B6BC30BC70472DE97E
:104AB000F041856B174604460026026C82B1C7B1EF
:104AC000E068FBF7A8FCE168206C091AE160226845
:104AD000914202D2A168081AE060022F16D017E0B6
:104AE0002068A8B9A06801F045F906460020A0603A
:104AF0000EE06068FBF78FFC216C60680844606022
:104B0000A168884204D32068606001E005B16D1E91
:104B10006D1CA5633046BDE8F08110B5044690F8E1
:104B2000590058B101280CD002280FD0502080F332
:104B30001188BFF34F8FBFF36F8FFEE7206B00F03C
:104B4000C7FB2046BDE8104000F0C2BB10BD00000E
:104B500010484FF47051420706D0C01D0D4920F097
:104B60000700411AC1F570510B4A00230144C2E904
:104B700000030839183A21F0070111604B600B60FF
:104B80000B1AC0E9001393604FF00040536050616E
:104B900070470000AC0F002094000020144E154C0C
:104BA000A6F29C474FF08058DFF84C9012E000BF0F
:104BB00000F05AFBF068C568281D00F0F7FAA068FD
:104BC000401EA0606068401E606000F06DFB2846DB
:104BD000FFF7A3FF60680028EAD138680128F9D9F7
:104BE000C9F80080BFF34F8FBFF36F8FF2E700006B
:104BF000B40700202800002004ED00E070B51D4639
:104C0000049C51B1C4F80020C4E90F0101212046E1
:104C100000F0B6FD84F84C5070BD2460F4E700004D
:104C20002DE9F05F8846DDE90B9415468346910037
:104C30009A460A9EA522206BFBF764FC6FF00301E5
:104C4000206B01EB8501084420F00707780707D0A7
:104C5000502080F31188BFF34F8FBFF36F8FFEE7B3
:104C60000025B8F1000F0FD05FF00000221818F8EF
:104C7000001082F8341018F8001011B1401C1028F0
:104C8000F4D384F8435001E084F83450382E00D334
:104C90003726E662C4E91365201D00F0BEFA04F170
:104CA000180000F0BAFA2461C6F138006462A0610D
:104CB000656584F8585052465946384600F060FA07
:104CC0002060B9F1000F01D0C9F80040BDE8F09FA5
:104CD00030B5114900E011460A688242FBD34B68A7
:104CE0005C18844203D14068184448600846436811
:104CF0001C18944209D1084C183C2468A24209D0DF
:104D000052681A4442600A6812680260814200D008
:104D1000086030BD0460F9E79400002070B50024FD
:104D200041600B4D0061914206D8D11A82699142CF
:104D300006D2011D286907E09A4203D2994201D3A5
:104D4000012403E0011DE86800F06AFA204670BD06
:104D50006400002010B5044600F086FAA06B28B16C
:104D60005FF0000400F0A0FA204610BD0124F9E72E
:104D700030B589B03C4D6EE00498002806DADDE9D4
:104D80000601059A90470498002864DB069C606938
:104D900010B1201D00F00AFA03A800F0D7F802466F
:104DA00004980A2857D2DFE800F00505052D334A9C
:104DB00005052D3394F8280040F0010084F8280000
:104DC0000599A069059B01442046FFF7A7FF68B33A
:104DD000216A2046884794F8280040073BD50020E8
:104DE00000900598A169002342181946204601F059
:104DF000CBF8D8B9502080F31188BFF34F8FBFF3A1
:104E00006F8FFEE714F8280F20F00100207022E0D9
:104E100094F8280040F0010084F828000598A0616B
:104E200028B1811813462046FFF778FF13E0502081
:104E300080F31188BFF34F8FBFF36F8FFEE794F8B5
:104E40002800810703D4204600F042FA03E020F056
:104E5000010084F82800002204A9286800F0E4FD7D
:104E6000002889D109B030BD640000202DE9FC4143
:104E70000F46054600F07CFB01A800F067F80446E9
:104E8000019818B100F0EEFFBDE8FC81254EAFB1EE
:104E900030690068D0B30027291B3A46306800F01B
:104EA00099FA00F0DFFF0028EED11F494FF0805043
:104EB0000860BFF34F8FBFF36F8FE5E7A542EBD8D4
:104EC00000F0D0FFF0682746C068C468201D00F0DD
:104ED0006DF994F82800410719D5A0692B464119AE
:104EE0003A462046FFF71AFFA8B1002003460146C4
:104EF00000902A46204601F047F860B9502080F320
:104F00001188BFF34F8FBFF36F8FFEE707E020F0EC
:104F1000010084F82800216A20468847B4E7012769
:104F2000BAE700006400002004ED00E00648416B91
:104F3000096829B1416BC968C968496881627047CD
:104F40004FF0FF31FAE700002800002070B5054659
:104F500000F0A6FE064E0446B068844203D200F07C
:104F600009F8012000E0002028602046B46070BDF0
:104F700064000020F8B5194D20E0C068C4680668D8
:104F8000201D00F013F9216A2046884794F8280074
:104F9000400713D5A0693044B04206D9246160604F
:104FA000211DE86800F03CF908E0002003460146B6
:104FB00000903246204600F0E7FF38B1E86801680B
:104FC0000029DAD12969C5E90310F8BD502080F322
:104FD0001188BFF34F8FBFF36F8FFEE7640000208F
:104FE00008484068401C4FF0500080F3118804D0FE
:104FF000BFF34F8FBFF36F8FFEE7BFF34F8FBFF34A
:105000006F8FFEE79C000020074CE068016841B10B
:10501000C0680021D0F80000FFF728FFFFF7A8FEC6
:10502000F3E701210020F7E7640000202DE9F041BB
:10503000044600F019F994F9455004F1240609E0FA
:10504000606A48B1304600F0D5FE08B100F012FAAF
:105050006D1E6DB2002DF3DC4FF0FF3684F8456015
:1050600000F022F900F000F994F9445004F110071F
:1050700009E0206948B1384600F0BCFE08B100F0F4
:10508000F9F96D1E6DB2002DF3DC84F84460BDE8C3
:10509000F04100F009B900002DE9F0410546002774
:1050A00000F066FA354E306808B9FFF751FD7069B7
:1050B000054216D1ADB1083568070ED005F00700DE
:1050C000C0F108000544680707D0502080F311881C
:1050D000BFF34F8FBFF36F8FFEE715B17068854246
:1050E00002D900F0BFFE39E02448183001460C68B0
:1050F00001E020460C466168A94202D221680029DD
:10510000F7D131688C42ECD0076821680160606893
:105110000837411B10290ED96019420707D05020CB
:1051200080F31188BFF34F8FBFF36F8FFEE74160AD
:105130006560FFF7CDFD61687068401A7060B26805
:10514000904200D2B060706901430020C4E90001C0
:10515000F068401CF06000F085FE0FB900F050F8D8
:10516000780707D0502080F31188BFF34F8FBFF32B
:105170006F8FFEE73846BDE8F08100007C0000201C
:1051800010B5031F4FF080741C601B1F21F001013C
:105190001960191F044B0B6014390A60091F6FF066
:1051A000020244380A6010BDE14F0008D0E9013224
:1051B00001699A60D0E901235A604A68824201D1AC
:1051C00082684A60002202610868401E0860086820
:1051D00070470000034B036003F15C00086080200F
:1051E00010607047F4080020044B036003F15C007A
:1051F00008604FF48070106070470000500B002072
:105200007047704700F108014FF0FF32C0E901120A
:10521000C160016100210160704700210161704798
:1052200030B50B685A1C02D000F1080202E0026996
:1052300004E02246546825689D42FAD953684B60C1
:1052400099608A60516008610168491C016030BD45
:1052500042684A6093688B60936859609160086106
:105260000168491C01607047502080F31188BFF32A
:105270004F8FBFF36F8F0A494868401C4860012870
:105280000CD10848006810F0FF0F07D0502080F3C1
:105290001188BFF34F8FBFF36F8FFEE77047000099
:1052A0009C00002004ED00E00849486828B1401E39
:1052B000486001D180F311887047502080F3118835
:1052C000BFF34F8FBFF36F8FFEE700009C000020FD
:1052D00070B500282AD0164DA0F1080460686969ED
:1052E000084207D1502080F31188BFF34F8FBFF3DE
:1052F0006F8FFEE722683AB1502080F31188BFF328
:105300004F8FBFF36F8FFEE78843606000F030F986
:1053100060686968084468602046FFF7D9FC28691E
:10532000401C2861BDE8704000F09CBD70BD0000CD
:105330007C0000204FF0E0200021016181610549DF
:105340004FF47A720968B1FBF2F1491E41610721FD
:10535000016170472400002010B5FAF7C1FF114920
:1053600010280ED300F1E02090F8F0030A78904264
:1053700007D2502080F31188BFF34F8FBFF36F8F98
:10538000FEE709480068896800F4E060884207D9B0
:10539000502080F31188BFF34F8FBFF36F8FFEE76C
:1053A00010BD00009C0000200CED00E010B5084B83
:1053B000002200BF53F832401CB1521C082AF9D316
:1053C00010BD43F8321003EBC201486010BD00006D
:1053D000D802002070B515460E460446FFF744FF7C
:1053E00094F944100020491C01D184F8440094F938
:1053F0004510491C01D184F84500FFF755FFA06B0B
:1054000028B92A46314604F1240000F051F820461C
:10541000BDE87040FFF70ABE10B5020014D00F4877
:10542000006B38B1502080F31188BFF34F8FBFF36A
:105430006F8FFEE700F09CF800211046FFF762FA3C
:1054400000F010FD002807D105494FF0805008609A
:10545000BFF34F8FBFF36F8F10BD000028000020F7
:1054600004ED00E002490A6A0260C96841607047C1
:105470002800002001490120C86170472800002051
:1054800010B50C4650B1094909681831FFF7C8FE3C
:105490002046BDE810400121FFF734BA502080F3C8
:1054A0001188BFF34F8FBFF36F8FFEE728000020F6
:1054B00070B514460D4668B10A4909681831FFF7FE
:1054C000C7FE0CB14FF0FF3521462846BDE87040BD
:1054D000FFF718BA502080F31188BFF34F8FBFF346
:1054E0006F8FFEE72800002030B587B000240394BA
:1054F00005AA04A903A80494FFF76CFEDDE90301E3
:105500000094CDE90110002315A11748059A00F079
:105510008EFB164D0028E8621FD000F005FD012823
:1055200009D0401C19D1502080F31188BFF34F8F50
:10553000BFF36F8FFEE7502080F31188BFF34F8FCA
:10554000BFF36F8F4FF0FF30A86201206861EC60FD
:1055500007B0BDE8304000F04FB807B030BD0000E4
:1055600049444C45000000009D4B000828000020E5
:105570000248016B491C01637047000028000020AD
:1055800010B51B4C206B10B10120E06110BD002054
:10559000E061206821680068096B884204D82168AE
:1055A00020683431FFF72DFE2069124901E0B8B1BF
:1055B000401E00EB800251F82220002AF7D000EBB9
:1055C000800201EB820101F108034A6852684A60D7
:1055D0009A4201D152684A60D1682160206110BDB1
:1055E000502080F31188BFF34F8FBFF36F8FFEE71A
:1055F00028000020180300201CB537480168374AEE
:10560000914207D1502080F31188BFF34F8FBFF331
:105610006F8FFEE700683149491E884207D150204C
:1056200080F31188BFF34F8FBFF36F8FFEE72C49D4
:1056300008780190FF20087008788DF800009DF828
:1056400000009DF8002000F0F000904207D05020AC
:1056500080F31188BFF34F8FBFF36F8FFEE79DF884
:105660000000204C00F0500020700720A06005E0F2
:105670009DF8002052008DF80020401E9DF800206B
:105680001206F5D4A060032807D0502080F31188BB
:10569000BFF34F8FBFF36F8FFEE74FF44070A060F2
:1056A000019808700C482030016841F470010160D5
:1056B000016841F070410160FFF73CFE002060602E
:1056C000FAF7D6FD0848016841F040410160FAF759
:1056D000BBFD00201CBD000000ED00E071C20F41C9
:1056E00000E400E09C00002034EF00E010B5502002
:1056F00080F31188BFF34F8FBFF36F8F00F0D6FA9E
:1057000018B104494FF080500860002080F31188E0
:1057100010BD000004ED00E038B5049D18B153B190
:10572000CAB181B120E0502080F31188BFF34F8FC0
:10573000BFF36F8FFEE7502080F31188BFF34F8FC8
:10574000BFF36F8FFEE7502080F31188BFF34F8FB8
:10575000BFF36F8FFEE739B1502080F31188BFF39C
:105760004F8FBFF36F8FFEE750241C46012384F850
:1057700046302B460094FFF741FA204638BD000022
:1057800070B50D46040025D0FFF76EFDD4E90F205B
:10579000216802FB0011A1600021A1632168616002
:1057A0000A46D4E90F01401E00FB0121E1602146B9
:1057B0004FF0FF3001F8440F487004F110008DB134
:1057C000FFF720FD04F12400FFF71CFDFFF76CFD3F
:1057D000012070BD502080F31188BFF34F8FBFF3BD
:1057E0006F8FFEE721690029F0D000F003FB00284D
:1057F000ECD004494FF080500860BFF34F8FBFF3E7
:105800006F8FE3E704ED00E02DE9FF4782B01D460E
:105810008A464FF00008040003D0BAF1000F08D008
:1058200011E0502080F31188BFF34F8FBFF36F8FCB
:10583000FEE7206C38B1502080F31188BFF34F8F02
:10584000BFF36F8FFEE7022D0AD1E06B012807D06E
:10585000502080F31188BFF34F8FBFF36F8FFEE7A7
:1058600000F010FA3F4F4FF000094FF0805648B952
:10587000049838B1502080F31188BFF34F8FBFF3E5
:105880006F8FFEE7FFF7F0FCA06BE16B884207D358
:10589000022D05D00498D0B1B8F1000F1AD01EE047
:1058A0002A4651462046FFF702F9616A19B104F110
:1058B000240000F09FFA20B13E60BFF34F8FBFF38A
:1058C0006F8FFFF7F1FC012006B0BDE8F087FFF70E
:1058D000EBFC22E06846FFF7C5FD4FF00108FFF73B
:1058E000E3FCFFF745FEFFF7BFFC94F94400401CC2
:1058F00001D184F8449094F94500401C01D184F80A
:105900004590FFF7D1FC04A9684600F029F930B1B1
:105910002046FFF78BFB00F0A5FA0020D4E7FFF745
:10592000A3FCA06BE16B884213D1FFF7BDFC04F12F
:1059300010000499FFF7A4FD2046FFF777FB00F065
:1059400091FA00289ED13E60BFF34F8FBFF36F8F57
:1059500098E7FFF7A9FC2046FFF768FB00F082FA02
:1059600090E7000004ED00E02DE9F0471F46904667
:105970008946040003D0B9F1000F08D011E050208F
:1059800080F31188BFF34F8FBFF36F8FFEE7206C5A
:1059900038B1502080F31188BFF34F8FBFF36F8F62
:1059A000FEE7022F0AD1E06B012807D0502080F3D8
:1059B0001188BFF34F8FBFF36F8FFEE7FFF7CCFC6B
:1059C0005020EFF3118680F31188BFF34F8FBFF3A0
:1059D0006F8FA06BE16B884206D3022F04D00020AA
:1059E00086F31188BDE8F08794F94550A06B3A46DC
:1059F00049462046FFF75BF8681C04D06D1C84F80C
:105A000045500120ECE7606A0028FAD004F1240038
:105A100000F0F0F90028F4D0B8F1000FF1D0012126
:105A2000C8F80010EDE700002DE9F747002683B025
:105A30008A46040003D0BAF1000F08D011E05020CC
:105A400080F31188BFF34F8FBFF36F8FFEE7206C99
:105A500038B1502080F31188BFF34F8FBFF36F8FA1
:105A6000FEE700F00FF9DFF8F4804FF000094FF087
:105A7000805748B9059838B1502080F31188BFF39A
:105A80004F8FBFF36F8FFEE7FFF7EEFBA56BC5B13E
:105A900051462046FEF7F8FF6D1EA563206950B100
:105AA00004F1100000F0A6F928B1C8F80070BFF3A7
:105AB0004F8FBFF36F8FFFF7F7FB012006B0BDE8F4
:105AC000F087059808B11EB106E0FFF7EDFB27E06F
:105AD0006846FFF7C7FC0126FFF7E6FBFFF748FD26
